:020000040800F2
:100000000000032071430008F9080008FB080008FD
:10001000FD080008FF0800080109000800000000B2
:10002000000000000000000000000000913B0008FC
:100030000309000800000000313C00082B370008CD
:10004000C1430008C1430008C1430008C143000880
:10005000C1430008C1430008C1430008C143000870
:10006000C1430008C1430008C1430008C143000860
:10007000C1430008C1430008C1430008C143000850
:10008000C1430008C143000805090008C143000836
:10009000C1430008C1430008C1430008C143000830
:1000A000C143000815090008C1430008C143000806
:1000B000C1430008C1430008C1430008C143000810
:1000C000C1430008C1430008C1430008C143000800
:1000D000C1430008C1430008C1430008C1430008F0
:1000E000C1430008C1430008C1430008C1430008E0
:1000F000C1430008C1430008C1430008C1430008D0
:10010000C1430008C1430008C1430008C1430008BF
:10011000C1430008C1430008C1430008C1430008AF
:10012000C1430008C1430008C1430008C14300089F
:10013000C1430008C1430008C1430008C14300088F
:10014000C1430008C1430008C1430008C14300087F
:10015000C1430008C1430008C1430008C14300086F
:10016000C1430008C1430008C1430008C14300085F
:10017000C1430008C1430008C1430008000000005B
:1001800025090008C1430008C1430008C143000815
:10019000C1430008C1430008C1430008C14300082F
:0C01A000C1430008C1430008C14300082F
:1001B00010B5054C237833B9044B13B10448AFF3A1
:1001C00000800123237010BD1000002000000000FB
:1001D0003844000808B5034B1BB103490348AFF38B
:1001E000008008BD00000000140000203844000812
:1001F00053B94AB9002908BF00281CBF4FF0FF318E
:100200004FF0FF3000F074B9ADF1080C6DE904CE89
:1002100000F006F8DDF804E0DDE9022304B07047E1
:100220002DE9F047089D04468E46002B4DD18A42A9
:10023000944669D9B2FA82F252B101FA02F3C2F1DC
:10024000200120FA01F10CFA02FC41EA030E94406D
:100250004FEA1C48210CBEFBF8F61FFA8CF708FB8E
:1002600016E341EA034306FB07F199420AD91CEB66
:10027000030306F1FF3080F01F81994240F21C8198
:10028000023E63445B1AA4B2B3FBF8F008FB1033E0
:1002900044EA034400FB07F7A7420AD91CEB040415
:1002A00000F1FF3380F00A81A74240F207816444E5
:1002B000023840EA0640E41B00261DB1D44000236A
:1002C000C5E900433146BDE8F0878B4209D9002DCE
:1002D00000F0EF800026C5E9000130463146BDE858
:1002E000F087B3FA83F6002E4AD18B4202D38242C2
:1002F00000F2F980841A61EB030301209E46002D71
:10030000E0D0C5E9004EDDE702B9FFDEB2FA82F2C5
:10031000002A40F09280A1EB0C014FEA1C471FFA23
:100320008CFE0126200CB1FBF7F307FB131140EA0A
:1003300001410EFB03F0884208D91CEB010103F1D7
:10034000FF3802D2884200F2CB804346091AA4B299
:10035000B1FBF7F007FB101144EA01440EFB00FE6D
:10036000A64508D91CEB040400F1FF3102D2A645D2
:1003700000F2BB800846A4EB0E0440EA03409CE771
:10038000C6F12007B34022FA07FC4CEA030C20FA1E
:1003900007F401FA06F31C43F9404FEA1C4900FA3E
:1003A00006F3B1FBF9F8200C1FFA8CFE09FB1811BB
:1003B00040EA014108FB0EF0884202FA06F20BD92E
:1003C0001CEB010108F1FF3A80F08880884240F27E
:1003D0008580A8F102086144091AA4B2B1FBF9F0C2
:1003E00009FB101144EA014100FB0EFE8E4508D9BD
:1003F0001CEB010100F1FF346CD28E456AD9023842
:10040000614440EA0840A0FB0294A1EB0E01A14226
:10041000C846A64656D353D05DB1B3EB080261EB94
:100420000E0101FA07F722FA06F3F1401F43C5E96E
:10043000007100263146BDE8F087C2F12003D840A4
:100440000CFA02FC21FA03F3914001434FEA1C47E6
:100450001FFA8CFEB3FBF7F007FB10360B0C43EAD8
:10046000064300FB0EF69E4204FA02F408D91CEB88
:10047000030300F1FF382FD29E422DD90238634486
:100480009B1B89B2B3FBF7F607FB163341EA034126
:1004900006FB0EF38B4208D91CEB010106F1FF3875
:1004A00016D28B4214D9023E6144C91A46EA00466C
:1004B00038E72E46284605E70646E3E61846F8E6FE
:1004C0004B45A9D2B9EB020864EB0C0E0138A3E747
:1004D0004646EAE7204694E74046D1E7D0467BE728
:1004E000023B614432E7304609E76444023842E7A0
:1004F000704700BF30B58DB000240794089409946C
:100500000A940B9400942D4B1A6B42F020021A634C
:100510001A6B02F020020092009A01941A6B42F0CA
:1005200001021A631A6B02F001020192019A02940D
:100530001A6B42F002021A631A6B02F00202029274
:10054000029A03941A6B42F010021A631A6B02F0BB
:1005500010020392039A04941A6B42F008021A6381
:100560001A6B02F008020492049A05941A6B42F086
:1005700004021A631A6B02F004020592059A0694AB
:100580001A6B42F040021A631B6B03F040030693A0
:10059000069B0B4D22464FF4C041284601F0F4F86B
:1005A0004FF4C04307930123089309940A9407A9C1
:1005B000284600F0EBFF0DB030BD00BF0038024010
:1005C0000018024008B5012003F048F9FBE70000DD
:1005D00008B50268034B9A4200D008BD01F04CF9FF
:1005E000FBE700BF0000014072B6FEE710B59AB00D
:1005F0003424224600210DEB040003F015FF2246AF
:100600000021684603F010FF3248334B036000239B
:1006100043608360C36003610722426103228261F9
:100620000E22C2610522026240F28E22426240F234
:10063000E51282624FF42572C26240F2E712026351
:1006400080F8343080F83530FF2380F8363001F000
:10065000FFF9002838D100220D920E920F921092CD
:100660001192129213924FF4806314930523159301
:100670001692179218928DF864208DF865208DF8E7
:1006800066200DA9134801F05DFAF8B90023009324
:100690000193029303930493059306934FF48062AE
:1006A00007920522089209930A930B938DF8303034
:1006B0008DF831308DF8323001226946054801F05D
:1006C00041FA28B91AB010BDFFF78EFFFFF78CFF73
:1006D000FFF78AFF780000200068014000B587B06E
:1006E00000230193029303930493059300931A4804
:1006F0001A4A026043607F228260FF22C260036167
:100700004361836101F0A3FA00BB00238DF804303C
:100710008DF805308DF8063004930593012201A968
:100720000D4801F0E6FA98B901228DF800208DF805
:1007300001208DF8022000238DF803306946064819
:1007400001F036FB30B907B05DF804FBFFF74CFF52
:10075000FFF74AFFFFF748FF300100200028004064
:1007600008B50748074B03600023436040228260BE
:10077000C260036101F004FD00B908BDFFF734FF5A
:1007800050010020002C004008B50448044B0360D1
:1007900003F0A5FD00B908BDFFF726FF20010020EA
:1007A0000008065000B585B0002300930193029322
:1007B00003931348134A0260436083600361037626
:1007C00080F82030C362104A8262C3600122C26195
:1007D00080F83030426103F0DBFB68B90B4B0093CB
:1007E00001230193002302936946054803F0A0FC0E
:1007F00020B905B05DF804FBFFF7F6FEFFF7F4FE45
:1008000030000020002001400100000F1200001005
:1008100000B595B03022002108A803F005FE0023A2
:100820000393049305930693079301931E4A116C57
:1008300041F080511164126C02F080520192019AD1
:1008400002931A490A6822F4404242F480420A6044
:100850000A6802F440420292029A0A220892012295
:100860000B9210210C910D9202220E920F93109177
:10087000C023119312920423139308A800F012FAD4
:1008800068B90F2303930021049105910691079104
:1008900003A800F055FC20B915B05DF804FBFFF784
:1008A000A3FEFFF7A1FE00BF003802400070004029
:1008B00008B500F0C7FFFFF7ABFFFFF71BFEFFF720
:1008C00095FEFFF70BFFFFF74BFFFFF75DFFFFF70D
:1008D00069FF02F037FF054A0021054802F060FF7A
:1008E000044B186002F040FFFEE700BF5C440008C4
:1008F000C50500082C000020FEE7FEE7FEE7FEE746
:10090000FEE7704708B5024803F070FB08BD00BF62
:100910003000002008B5024801F0E2FA08BD00BF2F
:100920006401002008B5024803F0F2FC08BD00BFD6
:100930002001002000B583B0002200920D4B596CBD
:1009400041F480415964596C01F48041009100994F
:100950000192196C41F0805119641B6C03F08053B3
:100960000193019B0F216FF0010000F025FF03B000
:100970005DF804FB0038024002680E4B9A4200D03A
:10098000704700B583B00022019203F58C33596C97
:1009900041F4807159645B6C03F480730193019B93
:1009A0000521122000F008FF122000F03DFF03B0E7
:1009B0005DF804FB00200140F0B599B00446002129
:1009C00013911491159116911791302207A803F0F5
:1009D0002BFD2268564B9A4201D019B0F0BD082376
:1009E000079364230B9302230D9307A800F08CFC5C
:1009F000002840F09980002400944E4B5A6C42F03D
:100A000080625A645A6C02F080620092009A0194EB
:100A10001A6B42F020021A631A6B02F02002019254
:100A2000019A02941A6B42F001021A631A6B02F0E7
:100A300001020292029A03941A6B42F002021A63B4
:100A40001A6B02F002020392039A04941A6B42F0AA
:100A500010021A631A6B02F010020492049A0594B1
:100A60001A6B42F008021A631A6B02F00802059230
:100A7000059A06941A6B42F004021A631B6B03F08A
:100A800004030693069B4FF4806313930225149589
:100A9000159416940E26179613A9274800F076FD94
:100AA00041F658031393149515941694179613A9A9
:100AB000224800F06BFD03231393149515941694AC
:100AC000092317931E4F13A9384600F05FFD4FF41A
:100AD00058431393149515941694179613A919480F
:100AE00000F054FD4FF4706313931495159416940D
:100AF000179613A9384600F049FD4FF48963139304
:100B0000149515941694179613A90F4800F03EFDFE
:100B10004FF498631393149515941694179613A98C
:100B20000A4800F033FD58E7FFF75EFD63E700BFBA
:100B300000680140003802400014024000000240FA
:100B40000004024000100240000C02400008024075
:100B500002680E4B9A4200D0704700B583B0002265
:100B600001920B4B596B41F0400159635B6B03F0F1
:100B700040030193019B0521502000F01DFE5020F1
:100B800000F052FE03B05DF804FB00BF0008065001
:100B90000038024010B58CB004463022002168466F
:100BA00003F042FC22680B4B9A4201D00CB010BDFE
:100BB000202300934FF400730A93684600F0A4FBCF
:100BC00020B9054B0122C3F83C2EEFE7FFF70CFDDF
:100BD000F7E700BF00280040000047420268094BC9
:100BE0009A4200D0704782B000230193064B1A6CE2
:100BF00042F400621A641B6C03F400630193019BCE
:100C000002B07047002C00400038024030B589B077
:100C10000546002401941E4B5A6C42F001025A64AE
:100C20005B6C03F001030193019B02A903A800F090
:100C30004DFB00F03BFB03461648A0FB03239B0C37
:100C4000013B1548154A026040F2E732C26043603A
:100C500004618460846101F065FA044610B12046A5
:100C600009B030BD0C4801F0F3F804460028F6D175
:100C7000192000F0D9FD0F2D01D90124EFE7002242
:100C80002946192000F098FD054B1D60E7E700BFDD
:100C90000038024083DE1B43640100200000014055
:100CA00004000020002800F0E08170B582B0044606
:100CB000036813F0010F3BD09F4B9B6803F00C03BC
:100CC000042B2CD09C4B9B6803F00C03082B21D0E9
:100CD0006368B3F5803F4FD0B3F5A02F52D0964B49
:100CE0001A6822F480321A601A6822F480221A608C
:100CF0006368002B50D000F0CBFD05468E4B1B687F
:100D000013F4003F14D100F0C3FD401B6428F5D953
:100D10000320B1E1884B5B6813F4800FD8D0864B79
:100D20001B6813F4003F03D06368002B00F09F8121
:100D3000236813F0020F54D07F4B9B6813F00C0F05
:100D40003ED07D4B9B6803F00C03082B33D0E36847
:100D5000002B68D0794B01221A6000F099FD0546FE
:100D6000754B1B6813F0020F54D100F091FD401B2E
:100D70000228F5D903207FE16F4A136843F48033DA
:100D80001360B5E76C4B1A6842F480221A601A6847
:100D900042F480321A60ABE700F07AFD0546664BFC
:100DA0001B6813F4003FC3D000F072FD401B6428A1
:100DB000F5D9032060E1604B5B6813F4800FC6D166
:100DC0005D4B1B6813F0020F03D0E368012B40F06A
:100DD0005081594A136823F0F803216943EAC1039B
:100DE0001360236813F0080F42D063696BB3534B51
:100DF0000122C3F8802E00F04BFD05464E4B5B6F81
:100E000013F0020F34D100F043FD401B0228F5D946
:100E1000032031E1484A136823F0F803216943EACB
:100E2000C1031360DDE7454B00221A6000F030FD7E
:100E30000546414B1B6813F0020FD2D000F028FD8D
:100E4000401B0228F5D9032016E13C4B0022C3F8D1
:100E5000802E00F01DFD0546374B5B6F13F0020F2F
:100E600006D000F015FD401B0228F5D9032003E150
:100E7000236813F0040F77D02F4B1B6C13F0805FA7
:100E800033D1002301932C4B1A6C42F080521A6428
:100E90001B6C03F080530193019B0125284B1B68B9
:100EA00013F4807F23D0A368012B34D0052B38D0D6
:100EB000214B1A6F22F001021A671A6F22F0040206
:100EC0001A67A368002B3DD000F0E2FC06461A4BDF
:100ED0001B6F13F0020F46D100F0DAFC801B41F2C9
:100EE00088339842F3D90320C6E00025D6E7144A98
:100EF000136843F48073136000F0CAFC0646104B7D
:100F00001B6813F4807FCED100F0C2FC801B022846
:100F1000F5D90320B0E0084A136F43F001031367CB
:100F2000CFE7054B1A6F42F004021A671A6F42F0BE
:100F300001021A67C5E700BF0038024000004742BF
:100F40000070004000F0A4FC0646524B1B6F13F0EB
:100F5000020F08D000F09CFC801B41F288339842BD
:100F6000F3D9032088E0EDB9A369002B00F083805A
:100F7000484A926802F00C02082A51D0022B17D07E
:100F8000454B00221A6600F083FC0446414B1B6867
:100F900013F0007F42D000F07BFC001B0228F5D943
:100FA000032069E03B4A136C23F080531364DBE7B2
:100FB000394B00221A6600F06BFC0546354B1B6866
:100FC00013F0007F06D000F063FC401B0228F5D927
:100FD000032051E0E369226A1343626A43EA821301
:100FE000A26A5208013A43EA0243E26A43EA026310
:100FF000284A5360284B01221A6600F049FC044637
:10100000244B1B6813F0007F06D100F041FC001B4D
:101010000228F5D903202FE000202DE000202BE04E
:10102000012B2BD01B4B5B6803F48001E2699142DA
:1010300026D103F03F02216A8A4223D1616A47F632
:10104000C0721A40B2EB811F1ED103F44031A26A74
:101050005208013AB1EB024F18D103F07063E26A13
:10106000B3EB026F14D1002006E00120704701208D
:1010700002E0012000E0002002B070BD0120FBE78B
:101080000120F9E70120F7E70120F5E70120F3E768
:101090000120F1E7003802400000474208B5254B27
:1010A0009B6803F00C03042B3FD0082B3FD1214B4E
:1010B0005A6802F03F025B6813F4800F12D01D4B98
:1010C0005968C1F388111C480023A1FB0001FFF7F8
:1010D0008FF8184B5B68C3F3014301335B00B0FB2F
:1010E000F3F025E0134B5968C1F3881C4FEA4C110B
:1010F000B1EB0C006EEB0E0E4FEA8E1343EA9063D9
:101100008101091A63EB0E03DB0043EA5173C90046
:1011100011EB0C0C43F10003990200234FEA8C20E1
:1011200041EA9C51FFF764F8D3E7034800E0034825
:1011300008BD00BF0038024040787D010024F40063
:10114000002800F09B8070B50D4604464F4B1B688D
:1011500003F00F038B4208D2CBB24C4A13701368D2
:1011600003F00F038B4240F08B80236813F0020FD3
:1011700017D013F0040F04D0454A936843F4E053AA
:101180009360236813F0080F04D0414A936843F436
:10119000604393603E4A936823F0F003A1680B43D9
:1011A0009360236813F0010F32D06368012B21D0C4
:1011B0009A1E012A25D9364A126812F0020F61D010
:1011C00033498A6822F0030213438B6000F060FB0E
:1011D00006462F4B9B6803F00C036268B3EB820F4B
:1011E00016D000F055FB801B41F288339842F0D9AD
:1011F000032042E0264A126812F4003FE0D10120A9
:101200003BE0234A126812F0007FD9D1012034E07C
:101210001E4B1B6803F00F03AB4207D9EAB21B4B0E
:101220001A701B6803F00F03AB422DD1236813F033
:10123000040F06D0164A936823F4E053E1680B4389
:101240009360236813F0080F07D0114A936823F4C2
:101250006043216943EAC1039360FFF71FFF0C4B12
:101260009B68C3F303130B4AD35CD8400A4B186046
:101270000A4B1868FFF7CAFC002070BD01207047B8
:101280000120FAE70120F8E70120F6E7003C0240E0
:1012900000380240804400080800002004000020BC
:1012A000014B1868704700BF0800002008B5FFF721
:1012B000F7FF044B9B68C3F34233034AD35CD84027
:1012C00008BD00BF00380240904400080F230360AF
:1012D0000B4B9A6802F0030242609A6802F0F00237
:1012E00082609A6802F4E052C2609B68DB0803F4F3
:1012F000E0530361034B1B6803F00F030B6070475F
:1013000000380240003C024030B583B00446036818
:1013100013F0430F15D1236813F00C0F6AD1236823
:1013200013F0200F40F0BF80236813F0100F00F07F
:10133000238194F82C20914BC3F8E021002003B0C6
:1013400030BD8F4B00229A6600F0A2FA05468D4B05
:101350001B6813F0006F06D000F09AFA431B022BB3
:10136000F5D90320EBE7236813F0010F07D062687B
:10137000A3681B0743EA8213824AC2F884302368B9
:1013800013F0020F15D07F4AD2F884106068E3682A
:101390001B0643EA801301F0E0410B43C2F884309E
:1013A000D2F88C3023F01F03E16901390B43C2F8F6
:1013B0008C30236813F0400F0AD06268E3681B0684
:1013C00043EA8213A26843EA02736E4AC2F8843089
:1013D0006B4B01229A6600F05BFA0546694B1B686D
:1013E00013F0006F97D100F053FA401B0228F5D993
:1013F0000320A4E7624B00221A6700F049FA054671
:10140000604B1B6813F0005F06D000F041FA431BED
:10141000022BF5D9032092E7236813F0040F16D0AE
:10142000584AD2F88810206963691B0643EA801382
:1014300001F0E0410B43C2F88830D2F88C3023F43D
:10144000F853216A013943EA0123C2F88C3023683A
:1014500013F0080F14D04B4AD2F88830216903F0FA
:10146000706343EA8113A16943EA0173C2F88830CB
:10147000D2F88C3023F44033616A0B43C2F88C30CD
:101480003F4B01221A6700F003FA05463D4B1B68EB
:1014900013F0005F7FF443AF00F0FAF9401B02281D
:1014A000F4D903204BE700230193364B1A6C42F02A
:1014B00080521A641B6C03F080530193019B324AE3
:1014C000136843F48073136000F0E2F905462E4B75
:1014D0001B6813F4807F06D100F0DAF9401B022864
:1014E000F5D903202BE7274B1B6F13F4407314D05F
:1014F000A26A02F440729A420FD0224B1A6F22F471
:1015000040721F490120C1F8400E0020C1F8400E72
:101510001A671B6F13F0010F12D1A36A03F4407214
:10152000B2F5407F1DD0174A936823F4F8139360F7
:1015300014490B6FA26AC2F30B0213430B67F3E665
:1015400000F0A6F905460F4B1B6F13F0020FE4D114
:1015500000F09EF9401B41F288339842F3D90320F2
:10156000EDE608498A6822F4F81223F0704323F468
:10157000407313438B60DBE70020E0E60010474236
:1015800000004742003802400070004000230F2B4B
:1015900000F2F18070B582B061E085685E000324DE
:1015A000B44025EA0405CC68B4402C438460456807
:1015B00025EA02054C68C4F300129A402A434260AF
:1015C0005BE0DC08083450F8246003F00702950063
:1015D0000F22AA4026EA020E0A69AA4042EA0E0237
:1015E00040F824205DE0092200E0002202FA0EF219
:1015F0002A430234604D45F82420604A94686FEA1B
:101600000C0224EA0C054E6816F4801F01D04CEA47
:1016100004055A4CA560E46802EA04054E6816F415
:10162000001F01D04CEA0405544CE560646802EAEE
:1016300004054E6816F4003F01D04CEA04054F4CF7
:101640006560246822404D6815F4803F01D04CEA63
:1016500004024A4C226001330F2B00F28A800122DF
:101660009A400C6804EA020C32EA0404F3D14C6894
:1016700004F00304013C012C8FD94A6802F00302F4
:10168000032A09D0C4685D000322AA4024EA0204A8
:101690008A68AA402243C2604A6802F00302022A12
:1016A0008FD004684FEA430E032202FA0EF224EAB6
:1016B00002044A6802F0030202FA0EF222430260B8
:1016C0004A6812F4403FC6D0002201922C4A546C62
:1016D00044F480445464526C02F480420192019AB2
:1016E0009C08A51C244A52F8255003F003024FEA37
:1016F000820E0F2202FA0EF225EA0205214A9042DA
:101700003FF473AF02F58062904222D002F580620E
:10171000904220D002F5806290421ED002F5806295
:1017200090421CD002F5806290421AD002F580628D
:10173000904218D002F58062904216D002F5806285
:10174000904214D002F5806290423FF44CAF0A22DE
:101750004CE701224AE7022248E7032246E7042237
:1017600044E7052242E7062240E707223EE7082237
:101770003CE702B070BD704700380140003C0140BA
:1017800000380240000002400AB18161704709043C
:1017900081617047074AD36823F4E0631B041B0C84
:1017A000000200F4E060034343F0BF6343F40033FE
:1017B000D360704700ED00E000B5194BDB68C3F360
:1017C0000223C3F1070CBCF1040F28BF4FF0040C37
:1017D00003F1040EBEF1060F18D9033B4FF0FF3E94
:1017E0000EFA0CFC21EA0C0199400EFA03F322EAEE
:1017F0000303194300280BDB0901C9B200F1604063
:1018000000F5614080F800135DF804FB0023E5E774
:1018100000F00F000901C9B2024B1954F4E700BFF0
:1018200000ED00E014ED00E0002807DB00F01F02EF
:10183000400901239340024A42F82030704700BF1C
:1018400000E100E008B50B4B1A6842F400721A6020
:101850001A6842F480621A601A6842F480721A6050
:101860000320FFF797FF0F20FFF7D0F9FFF762F88B
:10187000002008BD003C0240034A1168034B1B785E
:101880000B441360704700BFAC0100200000002033
:10189000014B1868704700BFAC010020F0B54D68DF
:1018A0000468E368C3F30B431D444FEAC21C04EB16
:1018B000C214D4F8883003F47043C4F888300B683D
:1018C0000468E668C6F30B463344013304EBC214E4
:1018D00043EA0543C4F88830CD680468E368C3F37D
:1018E0000A031D4404EBC21EDEF88C3003F470437F
:1018F000CEF88C308B680468E668C6F30A06334479
:10190000013304EBC21443EA0543C4F88C30036886
:1019100003EBC213D3F8944024F00704C3F89440B7
:10192000036803EBC2130C69C3F8944091F831705B
:1019300091F832508E69046804EBC21404F1840EED
:10194000D4F89C300024CEF8184091F8303043EAA7
:10195000072343EA0543056805EBC21543EA06631E
:10196000C5F89C30036803EBC213D3F8985025F0F8
:10197000FF05C3F89850036803EBC2134D69C3F821
:101980009850036803EBC213D3F8A05025F4E06528
:1019900025F00705C3F8A0500D6A036803EBC213D6
:1019A000CE693543C3F8A050036803EBC213D3F8E4
:1019B000AC50C3F8AC40036803EBC2124B6AC2F8E8
:1019C000AC300C696CB1012C3BD0042C3BD0022C08
:1019D00008D0032C39D0072C01D0012402E00224C6
:1019E00000E0042402686244D2F8B03003F0E0233F
:1019F000C2F8B0308B6A04FB03F54B680A689B1A87
:101A000004FB03F303330268624443EA0543C2F86C
:101A1000B03003686344D3F8B42022F4FF6222F0AC
:101A20000702C3F8B42003686344CA6AC3F8B42049
:101A300003689C44DCF8843043F00103CCF8843024
:101A4000F0BD0324CEE70224CCE70224CAE700005D
:101A5000002872D038B5044690F8A130002B67D02A
:101A6000022384F8A1302268936923F070439361C4
:101A700021688A696368A0680343E06803432069BA
:101A8000034313438B6121688A682D4B1A408A6097
:101A900020688268A169656941EA05410A4382605C
:101AA0002168CA681A40CA602068C268216AE5696C
:101AB00041EA05410A43C26021680A691A400A6185
:101AC00020680269A16A656A41EA05410A43026128
:101AD00021684A6913404B61E06A21684B69226BB7
:101AE00042EA004213434B6194F8350094F83630D3
:101AF0001B042168CA6A02F07F42CA622168CA6A6E
:101B000043EA002394F8340003431343CB62226872
:101B1000536B43F0060353632268936943F0010358
:101B200093610020C4F8A400012384F8A13038BDDB
:101B300080F8A030FEF740FF92E70120704700BF19
:101B400000F800F0F8B590F8A030012B2CD0044636
:101B50000D461646012780F8A070022380F8A130B8
:101B60004FF0340C0CFB020C0CF1380C8E46BEE826
:101B70000F00ACE80F00BEE80F00ACE80F00BEE8B5
:101B80000F00ACE80F00DEF80030CCF80030324631
:101B900029462046FFF782FE23685F6284F8A17021
:101BA000002084F8A000F8BD0220FCE738B5044608
:101BB0000268D36823F0A003D360FFF769FE0546EF
:101BC0002368DB6813F0200F07D1FFF761FE401B8D
:101BD000B0F57A7FF4D9032000E0002038BD70B55D
:101BE0000368DA6812F0400F02D00025284670BD65
:101BF0000446DA6842F08002DA60FFF749FE0646E2
:101C000000252368DB6813F0400FEFD1002DEDD1E4
:101C1000FFF73EFE831BB3F57A7FF2D90423637787
:101C20000125EEE70268D36823F08003D3600368E0
:101C30009B6813F0200F01D00020704710B50446B8
:101C4000FFF7B4FF10B104236377012010BD002813
:101C500041D010B50446437FE3B102236377236884
:101C6000CA225A62236853225A622046FFF7B7FFFE
:101C7000A0B158B92268136C23F48023136422683E
:101C8000136CA1690B431364012363772368FF225C
:101C90005A6210BD0377FEF77DFFDEE72268936886
:101CA00023F4E00323F04003936021688A686368AB
:101CB000206903436069034313438B602368E26830
:101CC0001A6122681369A16843EA0143136120463F
:101CD000FFF7A8FFCDE701207047002303E00133A1
:101CE000DBB20A38C0B20928F9D81B01DBB21843AD
:101CF0007047037F012B59D070B504460E4601236F
:101D00000377022343774ABB03689B6813F0400FB5
:101D100001D10023CB703078FFF7DFFF0504707826
:101D2000FFF7DBFF45EA0025B078FFF7D6FF054354
:101D3000F07845EA80552368CA225A622368532204
:101D40005A622046FFF74BFFD0B108B901236377F1
:101D50002368FF225A620023237770BD03689B68C3
:101D600013F0400F01D10023CB70337875782D022A
:101D700045EA0345B0780543F07845EA8055DAE74F
:101D8000236805F07F3525F0FE451D6022689368C5
:101D900023F48023936021688B68F26830690243E2
:101DA00013438B602046FFF73DFFCEE702207047CC
:101DB000037F012B48D070B504460E4601230377FC
:101DC000022343773AB94B7813F0100F03D003F096
:101DD000EF030A334B7012BBF078FFF77EFF050468
:101DE0007078FFF77AFF45EA0025B078FFF775FFB6
:101DF0000543307845EA40352368CA225A62236891
:101E000053225A622046FFF7EAFE98B108B901232F
:101E100063772368FF225A620023237770BDF3782B
:101E200075782D0245EA0345B0780543307845EAD8
:101E30004035E1E7236825F07F4525F0C0055D606A
:101E40002046FFF7EFFEE1E70220704770470000F1
:101E500090F83D30DBB2012B37D1022380F83D30C2
:101E60000268D36843F00103D3600368194A9342C0
:101E700020D0B3F1804F1DD0A2F57C42934219D0FF
:101E800002F58062934215D002F58062934211D030
:101E900002F5784293420DD002F57052934209D078
:101EA000A2F59432934205D01A6842F001021A60FA
:101EB000002070479A6802F00702062A07D01A68C5
:101EC00042F001021A600020704701207047002094
:101ED000704700BF0000014070477047704770476F
:101EE00010B5044603681A6912F0020F11D0DA68BF
:101EF00012F0020F0DD06FF002021A610123037776
:101F000003689B6913F0030F70D0FFF7E6FF00230F
:101F1000237723681A6912F0040F12D0DA6812F0DE
:101F2000040F0ED06FF004021A6102232377236896
:101F30009B6913F4407F5FD02046FFF7CEFF00235C
:101F4000237723681A6912F0080F12D0DA6812F0AA
:101F5000080F0ED06FF008021A610423237723685C
:101F6000DB6913F0030F4ED02046FFF7B6FF0023C6
:101F7000237723681A6912F0100F12D0DA6812F072
:101F8000100F0ED06FF010021A6108232377236818
:101F9000DB6913F4407F3DD02046FFF79EFF00230E
:101FA000237723681A6912F0010F03D0DA6812F060
:101FB000010F36D123681A6912F0800F03D0DA6856
:101FC00012F0800F34D123681A6912F0400F03D049
:101FD000DA6812F0400F32D123681A6912F0200F2C
:101FE00003D0DA6812F0200F30D110BDFFF774FF74
:101FF0002046FFF773FF8AE72046FFF76DFF204674
:10200000FFF76CFF9BE72046FFF766FF2046FFF7D0
:1020100065FFACE72046FFF75FFF2046FFF75EFF56
:10202000BDE76FF001021A612046FEF7D1FAC1E761
:102030006FF080021A61204600F0A1F8C3E76FF04C
:1020400040021A612046FFF74AFFC5E76FF0200201
:102050001A61204600F092F8C7E700000368304A92
:10206000904212D0B0F1804F0FD0A2F57C42904246
:102070000BD002F58062904207D002F58062904258
:1020800003D002F57842904203D123F070034A68EE
:102090001343234A90422AD0B0F1804F27D0A2F5B3
:1020A0007C42904223D002F5806290421FD002F51C
:1020B000806290421BD002F57842904217D002F520
:1020C0007052904213D002F5806290420FD002F518
:1020D000806290420BD0A2F59832904207D002F570
:1020E0008062904203D002F58062904203D123F4D3
:1020F0004073CA68134323F080034A6913430360A3
:102100008B68C3620B688362054B984203D003F56A
:102110008063984201D10B690363012343617047D7
:102120000000014040B310B5044690F83D30F3B1D3
:10213000022384F83D30214651F8040BFFF78EFF4F
:10214000012384F8463084F83E3084F83F3084F828
:10215000403084F8413084F8423084F8433084F8C9
:10216000443084F8453084F83D30002010BD80F8BC
:102170003C30FFF76BFEDBE701207047704770478C
:1021800088B110B50446FEF729FDE368226843F0E4
:1021900080031360236962681343A16822680B43BC
:1021A0005360002010BD012070470000034AD2F8A0
:1021B000883043F47003C2F88830704700ED00E0C7
:1021C00000F1080343604FF0FF328260C360036197
:1021D00000230360704700230361704743684B602E
:1021E0009A688A60516099600861036801330360EE
:1021F000704730B40D68B5F1FF3F11D000F108030E
:102200001C465B681A68AA42FAD963684B609960F9
:102210008C606160086103680133036030BC704703
:102220000469F2E70369416882688A604168516025
:102230005A68824206D0002202611A68013A1A6086
:102240001868704782685A60F5E710B5044601F0D7
:10225000B1FCA26BE36B9A4204D0002401F0CCFCE9
:10226000204610BD0124F9E710B5044601F0A2FC98
:10227000A36B23B9012401F0BFFC204610BD00244C
:10228000F9E770B504461546866B026C5AB90368C7
:102290001BB100200136A66370BD806800F0D4FF3A
:1022A0000023A360F6E76DB9406802F0AFF8226C36
:1022B000636813446360A268934219D32368636020
:1022C0002846E7E7C06802F0A1F8226C5142E368B3
:1022D0009B1AE3602268934202D2A3680B44E36036
:1022E000022D01D00020D5E726B1013E0020D1E724
:1022F0002846CFE70020CDE70346026C6AB110B54F
:102300000846D9681144D9609C68A14201D3196874
:10231000D960D96802F07AF810BD704738B5054623
:1023200001F048FC95F8454064B201E0013C64B21C
:10233000002C0ADD6B6A43B105F1240000F0DAFEDF
:102340000028F3D000F06AFFF0E7FF2385F845305E
:1023500001F052FC01F02EFC95F8444064B201E01B
:10236000013C64B2002C0ADD2B6943B105F1100079
:1023700000F0C0FE0028F3D000F050FFF0E7FF238C
:1023800085F8443001F038FC38BD38B5E0B10D4671
:10239000044601F00FFC2368E26B216C01FB023064
:1023A000A0600020A0636360013A02FB0133E36098
:1023B000FF2384F8443084F84530FDB9236963B9BC
:1023C00001F01AFC012038BD4FF0500383F311884F
:1023D000BFF36F8FBFF34F8FFEE704F1100000F0E3
:1023E00089FE0028ECD04FF0E0234FF08052C3F874
:1023F000042DBFF34F8FBFF36F8FE1E704F110009F
:10240000FFF7DEFE04F12400FFF7DAFED8E738B567
:102410001D46049C0B4649B92460E06323640121F6
:102420002046FFF7B2FF84F84C5038BD2260F4E735
:1024300040B94FF0500383F31188BFF36F8FBFF3A0
:102440004F8FFEE710B584B01C46844653B192B15D
:1024500089B94FF0500383F31188BFF36F8FBFF337
:102460004F8FFEE74FF0500383F31188BFF36F8F58
:10247000BFF34F8FFEE76AB150230393039B502BAA
:1024800013D04FF0500383F31188BFF36F8FBFF366
:102490004F8FFEE70029EFD04FF0500383F31188F0
:1024A000BFF36F8FBFF34F8FFEE7039B012384F8C9
:1024B000463000949DF818306046FFF7A8FF20468C
:1024C00004B010BDF0B585B0019288B10F461D462D
:1024D0000446B1B1022D20D1E36B012B1DD04FF08A
:1024E000500383F31188BFF36F8FBFF34F8FFEE765
:1024F0004FF0500383F31188BFF36F8FBFF34F8FFB
:10250000FEE7036C002BE5D04FF0500383F31188F6
:10251000BFF36F8FBFF34F8FFEE700F085FE0646D7
:1025200058B9019B002B48D04FF0500383F311881A
:10253000BFF36F8FBFF34F8FFEE700263DE02A46C3
:1025400039462046FFF79DFE636A7BB948B14FF0DC
:10255000E0234FF08052C3F8042DBFF34F8FBFF339
:102560006F8F01F049FB012005B0F0BD04F124009C
:1025700000F0C0FD0028F4D04FF0E0234FF080526F
:10258000C3F8042DBFF34F8FBFF36F8FE9E701F05E
:1025900033FB0020E8E702A800F0F2FD012619E075
:1025A000002384F8443021E0002384F8453023E000
:1025B0002046FFF7B3FE00F07DFC01F0FBFAA26BB2
:1025C000E36B9A42BBD3022DB9D0019B002BDED026
:1025D000002EE0D001F010FB00F0D2FB01F0EAFA8F
:1025E00094F8442052B2B2F1FF3FD9D094F845207C
:1025F00052B2B2F1FF3FD7D001F0FEFA01A902A812
:1026000000F0CAFDD8B92046FFF71FFE0028CFD042
:10261000019904F1100000F039FD2046FFF77EFE1D
:1026200000F048FC0028C8D14FF0E0234FF0805262
:10263000C3F8042DBFF34F8FBFF36F8FBDE7204664
:10264000FFF76CFE00F036FC00208DE72DE9F84323
:1026500090B10F4616461C460546B1B1022C20D15A
:10266000EB6B012B1DD04FF0500383F31188BFF3A8
:102670006F8FBFF34F8FFEE74FF0500383F3118846
:10268000BFF36F8FBFF34F8FFEE7036C002BE5D0D6
:102690004FF0500383F31188BFF36F8FBFF34F8F59
:1026A000FEE701F0ADFBEFF311894FF0500383F328
:1026B0001188BFF36F8FBFF34F8FAA6BEB6B9A42FA
:1026C00006D3022C04D0002089F31188BDE8F883DA
:1026D00095F845804FFA88F8AB6B22463946284674
:1026E000FFF7CFFDB8F1FF3F06D008F101035BB261
:1026F00085F845300120E7E76B6A0BB90120E3E775
:1027000005F1240000F0F6FC18B126B1012030607C
:10271000DAE70120D8E70120D6E7F0B585B00192CD
:1027200090B10F460446C1B100F07EFD064600BBE5
:10273000019B002B5ED04FF0500383F31188BFF351
:102740006F8FBFF34F8FFEE74FF0500383F3118875
:10275000BFF36F8FBFF34F8FFEE7036C002BE3D007
:102760004FF0500383F31188BFF36F8FBFF34F8F88
:10277000FEE700263EE039462046FFF7BDFD013D5D
:10278000A563236923B901F037FA012005B0F0BD34
:1027900004F1100000F0AEFC0028F4D04FF0E0236C
:1027A0004FF08052C3F8042DBFF34F8FBFF36F8FEC
:1027B000E9E701F021FA0020E8E702A800F0E0FCD8
:1027C000012621E0002384F8443029E0002384F826
:1027D00045302BE02046FFF7A1FD00F06BFB09E040
:1027E0002046FFF79BFD00F065FB2046FFF73CFD10
:1027F00000283FD101F0DEF9A56B002DBBD1019B74
:10280000002BD6D0002ED8D001F0F6F900F0B8FA9F
:1028100001F0D0F994F844305BB2B3F1FF3FD1D06E
:1028200094F845305BB2B3F1FF3FCFD001F0E4F94B
:1028300001A902A800F0B0FC0028D1D12046FFF782
:1028400013FD0028C6D0019904F1240000F01EFCFD
:102850002046FFF763FD00F02DFB0028CAD14FF0A2
:10286000E0234FF08052C3F8042DBFF34F8FBFF326
:102870006F8FBFE7002089E70023072B0CD8074A9A
:1028800052F833200AB10133F7E7044A42F8331013
:1028900002EBC30358607047704700BFB0010020CF
:1028A00070B504460D46164601F084F994F844309C
:1028B0005BB2B3F1FF3F0DD094F845305BB2B3F19A
:1028C000FF3F0BD001F098F9A36B5BB12046FFF7F7
:1028D00025FD70BD002384F84430EDE7002384F823
:1028E0004530EFE73246294604F1240000F0E6FBCC
:1028F000ECE70000084B1B681B6823B9074B4FF03F
:10290000FF321A607047044B1B68DB68DB685A684B
:10291000024B1A60704700BFF40100209C060020A3
:102920002DE9F04780460D4617469946089EDDF88A
:1029300024A00A9C9200A521206B01F075FD236B59
:1029400007F18042013A03EB820727F00707B5B38E
:102950004FF0000CBCF10F0F0BD815F80C2004EB56
:102960000C0383F8342015F80C3013B10CF1010C72
:10297000F0E7002384F84330372E00D93726E6628B
:10298000E66400252565201DFFF725FC04F11800ED
:10299000FFF721FC2461C6F13806A6616462656513
:1029A00084F858504A464146384601F0DBF820602A
:1029B000BAF1000F01D0CAF80040BDE8F08700234B
:1029C00084F83430D8E7000038B5002407E004EB81
:1029D000840293000E481844FFF7F2FB0134372CB1
:1029E000F5D90C4D2846FFF7EBFB0B4C2046FFF7C3
:1029F000E7FB0A48FFF7E4FB0948FFF7E1FB09485A
:102A0000FFF7DEFB084B1D60084B1C6038BD00BFA4
:102A1000FC0100207006002084060020A80600208B
:102A2000D4060020C0060020F4010020F801002098
:102A300010B5044601F0BEF8224A13680133136052
:102A4000214B1B685BB1214B1B686BB91E4B1B688C
:102A5000DA6AE36A9A4207D81B4B1C6004E01A4BFF
:102A60001C601368012B29D0194A136801331360C5
:102A70006364E06A174B1B68984201D9154B1860D4
:102A800000EB8000211D144B03EB8000FFF7A6FB39
:102A900001F0B2F80D4B1B687BB10B4B1B68DA6A77
:102AA000E36A9A4209D24FF0E0234FF08052C3F814
:102AB000042DBFF34F8FBFF36F8F10BDFFF784FF5F
:102AC000D2E700BF5C060020F0010020BC06002019
:102AD000680600206C060020FC01002010B50446AA
:102AE00090F8593063B1012B11D0022B0ED04FF06A
:102AF000500383F31188BFF36F8FBFF34F8FFEE74F
:102B0000006B00F0B3FF204600F0B0FF10BD00F0F6
:102B1000ADFFFBE70F4B1B68D3B110B501F04AF8CE
:102B20000D4BDB68DC68201DFFF77CFB0B4A13684C
:102B3000013B1360074A1368013B136001F05CF826
:102B40002046FFF7CBFF034B1B68002BE6D110BDDF
:102B5000704700BF60060020D40600205C060020FD
:102B600008B5FFF7D7FF074B1B68012BF9D94FF0CA
:102B7000E0234FF08052C3F8042DBFF34F8FBFF313
:102B80006F8FEEE7FC01002070B504460D46174B31
:102B90001E68174B18680430FFF744FBB4F1FF3F81
:102BA0000DD03444124B1B685C60A64210D9114B07
:102BB00018680F4B19680431FFF71BFB70BD002D1F
:102BC000EFD00B4B196804310B48FFF707FBF5E713
:102BD0000A4B1868064B19680431FFF70AFB084BCB
:102BE0001B68A342EAD9064B1C60E7E7E806002011
:102BF000F0010020F8010020C0060020F4010020B0
:102C00009C06002030B587B00B9C7CB10C9DB5B103
:102C10005C250495049D5C2D1AD04FF0500383F37E
:102C20001188BFF36F8FBFF34F8FFEE74FF0500354
:102C300083F31188BFF36F8FBFF34F8FFEE74FF021
:102C4000500383F31188BFF36F8FBFF34F8FFEE7FD
:102C5000049D0C9D2C63022485F8594000240394A4
:102C6000029505AC01940A9C0094FFF759FE0C985C
:102C7000FFF7DEFE059807B030BD2DE9F04385B0C3
:102C80000746884614461E46900000F071FE00B3C9
:102C900081465C2000F06CFE0546B0B1C0F8309073
:102CA000E5B1002385F85930039302950D9B0193FC
:102CB0000C9B00933346224641463846FFF730FED0
:102CC0002846FFF7B5FE012005E0484600F0CEFE9D
:102CD000E6E74FF0FF3005B0BDE8F0834FF0FF307E
:102CE000F9E7000010B588B000240594069407AAFF
:102CF00006A905A800F0C0FD059B0293069B019361
:102D000000942346079A18491848FFF77BFF184B91
:102D1000186040B100F04CFB012806D0B0F1FF3F35
:102D200018D008B010BD0020F6E74FF0500383F331
:102D30001188BFF36F8FBFF34F8F0E4B4FF0FF32F1
:102D40001A600D4B01221A600C4B00221A6000F031
:102D5000CBFFE6E74FF0500383F31188BFF36F8F8B
:102D6000BFF34F8FFEE700BF98440008612B0008B7
:102D7000980600209C060020BC060020E8060020E3
:102D8000024A136801331360704700BF64060020D5
:102D9000014B1868704700BFE8060020F8B53A4BB1
:102DA0001B68002B69D1394B1D6801351D60C5B901
:102DB000374B1B681B6843B14FF0500383F31188F6
:102DC000BFF36F8FBFF34F8FFEE7314A1168314B6E
:102DD000186810601960304A136801331360FFF7F8
:102DE00089FD2E4B1B68AB423DD900272C4B1B683D
:102DF000DB6A03EB83039A002A4B9B58012B00D913
:102E00000127294B1B68002B3CD001273AE0012702
:102E10001F4B1B681B6843B31D4B1B68DB68DC68DA
:102E200063689D4226D3261D3046FFF7FBF9A36A4F
:102E30001BB104F11800FFF7F5F9E36A1B4A1268A9
:102E4000934201D9194A136003EB83039A00314678
:102E500014481044FFF7C2F9E26A114B1B68DB6AA1
:102E60009A42D4D2D4E70027D2E70C4B4FF0FF327E
:102E70001A60BBE7094A1360B8E70D4A13680133CB
:102E8000136000273846F8BD64060020E8060020DD
:102E9000F4010020F8010020A00600209C0600207C
:102EA000F0010020FC010020EC0600206C06002050
:102EB000A406002038B5354B1B6843B94FF05003CA
:102EC00083F31188BFF36F8FBFF34F8FFEE700F0DE
:102ED00071FE2E4B1A68013A1A601B68002B4FD105
:102EE0002B4B1B680BB900244BE00024294B1B68BB
:102EF0001BB3284BDB68DC6804F11800FFF792F97C
:102F0000251D2846FFF78EF9E06A234B1B6898427F
:102F100001D9214B186000EB800029461F4B03EBC1
:102F20008000FFF75BF9E26A1D4B1B68DB6A9A427F
:102F3000DCD31C4B01221A60D8E70CB1FFF7DAFC96
:102F4000194B1C6884B9174B1C68D4B14FF0E023AF
:102F50004FF08052C3F8042DBFF34F8FBFF36F8F34
:102F600001240EE0013C07D0FFF718FF0028F9D03C
:102F70000C4B01221A60F5E70B4B00221A60E2E7C6
:102F8000002400F039FE204638BD00BF6406002052
:102F90005C060020A80600206C060020FC01002032
:102FA000F0010020EC060020A406002010B5A8B116
:102FB0000446104B1B6843B14FF0500383F3118854
:102FC000BFF36F8FBFF34F8FFEE7FFF7D9FE0021EE
:102FD0002046FFF7D9FDFFF76DFF48B94FF0E0231A
:102FE0004FF08052C3F8042DBFF34F8FBFF36F8FA4
:102FF00010BD00BF640600201F4B1B681BB11F4B98
:1030000001221A6070471D4B00221A601C4B1B687E
:1030100003EB83018A001B498A585AB90BB1013B63
:10302000F6E74FF0500383F31188BFF36F8FBFF3C0
:103030004F8FFEE703EB830082000A44506840682C
:10304000506003EB830C4FEA8C0208321144884233
:103050000BD003EB830291000A4A0A445268D168FC
:10306000094A1160064A1360704740686246910041
:10307000044A0A445060ECE764060020EC06002095
:103080006C060020FC010020F001002058B110B5B2
:103090000C46094A11681831FFF7ABF801212046A8
:1030A000FFF772FD10BD4FF0500383F31188BFF39B
:1030B0006F8FBFF34F8FFEE7F001002038B570B17E
:1030C0000D4614460A4A11681831FFF787F80CB10B
:1030D0004FF0FF3521462846FFF756FD38BD4FF02B
:1030E000500383F31188BFF36F8FBFF34F8FFEE759
:1030F000F001002038B5C368DC6824B304F118057A
:103100002846FFF78FF8184B1B682BBB251D284658
:10311000FFF788F8E06A154B1B68984201D9134BFA
:10312000186000EB80002946114B03EB8000FFF78D
:1031300055F8E26A0F4B1B68DB6A9A4211D90120ED
:103140000D4B186038BD4FF0500383F31188BFF367
:103150006F8FBFF34F8FFEE729460848FFF73EF811
:10316000E7E70020EEE700BF640600206C060020C1
:10317000FC010020F0010020EC060020A806002041
:10318000034B1B680360034B1B684360704700BF21
:10319000A0060020E8060020F8B5C8B10C46054698
:1031A000F9B100F007FD1B4B19686B68C81A22685B
:1031B000B2F1FF3F26D0184E36682F68B74201D0D3
:1031C0008B4224D9824215D80023236001241AE0BF
:1031D0004FF0500383F31188BFF36F8FBFF34F8F0E
:1031E000FEE74FF0500383F31188BFF36F8FBFF3F7
:1031F0004F8FFEE75B1A134423602846FFF7C0FF9A
:10320000002400E0002400F0F7FC2046F8BD012473
:10321000F9E700BFE8060020A0060020014B0122CC
:103220001A607047EC060020054B1B6833B1054B54
:103230001B680BB1002070470220704701207047C7
:10324000BC0600206406002000283BD038B50446A8
:103250001E4B1B68834208D04FF0500383F3118844
:10326000BFF36F8FBFF34F8FFEE7036D43B94FF08E
:10327000500383F31188BFF36F8FBFF34F8FFEE7C7
:10328000013B0365C16AC26C91421DD00BB10020A5
:1032900038BD051D2846FEF7C5FFE06CE062C0F1B1
:1032A0003803A3610A4B1B68984201D9084B186088
:1032B00000EB80002946074B03EB8000FEF78EFFF2
:1032C0000120E5E7002070470020E1E7F001002041
:1032D0006C060020FC010020064B1A6813682BB90D
:1032E0000123036023B9D368186870470023F8E707
:1032F00000207047F006002008B54160006191424F
:103300000CD8D21A83699A4201D3012008BD011D4D
:10331000094B1868FEF76DFF0020F7E79A4201D2CB
:10332000994206D2011D054B1868FEF762FF002086
:10333000ECE70120EAE700BFF4060020F0060020D9
:1033400030B583B000F036FC114B1B681BB100F0A8
:1033500053FC03B030BD0F4D2846FEF731FF0E4C35
:103360002046FEF72DFF0D4B1D600D4B1C6000230A
:1033700000930C4B0C4A10210A20FFF759F8044B1C
:1033800018600028E3D00949FFF776FADFE700BFAD
:103390001408002098070020AC070020F006002049
:1033A000F4060020C4070020F8060020A04400080E
:1033B00010B588B0FFF7C4FF124B1B68CBB10024D7
:1033C0000594069407AA06A905A800F061FA059BD2
:1033D0000293069B0193022300932346079A0A490E
:1033E0000A48FFF70FFC0A4B186010B1012008B023
:1033F00010BD4FF0500383F31188BFF36F8FBFF3FD
:103400004F8FFEE714080020A84400081537000875
:1034100018080020B8B19C4603461848006858B305
:1034200000B585B000910192029305291CDCFFF7DD
:10343000FBFE022810D000231A4669460F48006898
:10344000FFF740F815E04FF0500383F31188BFF306
:103450006F8FBFF34F8FFEE70023069A6946074838
:103460000068FFF72FF804E0002362466946FFF783
:10347000EDF805B05DF804FB00207047140800204B
:1034800070B582B01B4B1B681A6862B3DB681E689C
:10349000DC68251D2846FEF7C5FE236A20469847AE
:1034A00094F8283013F0040FECD0A36933449E4203
:1034B00007D26360246129460E4B1868FEF799FE17
:1034C000E0E7002100910B4632462046FFF7A2FFBD
:1034D0000028D7D14FF0500383F31188BFF36F8FCB
:1034E000BFF34F8FFEE7044A10680249086013607B
:1034F00002B070BDF0060020F406002038B5054685
:10350000FFF746FC0446074B1B68834205D800239F
:103510002B60044B1C60204638BDFFF7B1FF012330
:103520002B60F6E7C007002070B582B006460D4656
:1035300017490968C968CC68201DFEF773FE94F826
:1035400028C01CF0040F08D12CF0010C84F828C00E
:10355000236A2046984702B070BDA16933462A46C7
:1035600031442046FFF7C8FE0028F1D00021009129
:103570000B4632462046FFF74DFF0028E8D14FF0BA
:10358000500383F31188BFF36F8FBFF34F8FFEE7B4
:10359000F006002070B582B006460C46FFF7F0FB3F
:1035A00001A8FFF7ABFF019B33BB05460CB9B04246
:1035B00019D224B1124A12681268DAB901242246DB
:1035C000711B104B1868FFF76BF9FFF773FCA8B974
:1035D0004FF0E0234FF08052C3F8042DBFF34F8F1C
:1035E000BFF36F8F0AE0FFF765FC29463046FFF70F
:1035F0009BFF03E01C46E2E7FFF75CFC02B070BDF6
:10360000F40600201408002010B588B002E0049BE6
:10361000002B0FDA002204A93D4B1868FFF77DF854
:10362000002873D0049B002BF1DA07990698059BBC
:103630009847ECE7069C636913B1201DFEF7F2FD85
:1036400003A8FFF75BFF049B092BE3D8DFE803F037
:103650000505053037500505303794F8283043F01C
:10366000010384F82830059BA169024619442046CD
:10367000FFF742FE0028CDD0236A2046984794F8F1
:10368000283013F0040FC5D0A269002100910B4629
:10369000059802442046FFF7BDFE0028BAD14FF03E
:1036A000500383F31188BFF36F8FBFF34F8FFEE793
:1036B00094F8283023F0010384F82830AAE794F81E
:1036C000283043F0010384F828300599A16131B115
:1036D0000346024601442046FFF70EFE9AE74FF0EC
:1036E000500383F31188BFF36F8FBFF34F8FFEE753
:1036F00094F8283013F0020F04D023F0010384F86B
:10370000283087E7204600F0B1F983E708B010BD04
:103710001408002000B583B001A8FFF7DDFD019972
:10372000FFF738FFFFF770FFF6E708B54FF0E0232B
:103730001B69FFF779FD012800D108BD00F0AAFA46
:10374000FBE70000EFF305832BB9064B186828B997
:1037500001221A6070476FF0050070474FF0FF308C
:10376000704700BF780A0020EFF3058373B90A4B56
:103770001B68012B0DD110B50024084BDC77064BDC
:1037800002221A60FFF7AEFA204610BD6FF0050066
:1037900070474FF0FF307047780A002000ED00E0DE
:1037A000F0B587B000240594EFF3058474BB68B3CB
:1037B00022B31568936903B918235C1E372C49D8C6
:1037C000546814F0010F47D156696EB14FEA960C58
:1037D00094682CB1D7685B2F02D9176907B1C6B9B5
:1037E0002CB14FF0FF340EE04FF0800CF0E7D468BE
:1037F0008CB9146994B14FF0FF3404E015460024ED
:1038000018234FF0800C012C0AD0ACB1059807B0FA
:10381000F0BD0124F7E74FF0FF34F4E70024F2E7AE
:10382000146992680292019400930B4662462946FD
:10383000FFF7E8F90590E9E705AA019200930B4626
:103840001FFA8CF22946FFF718FA0128DED0002370
:103850000593DBE70020DAE70020D8E708B5EFF3AF
:10386000058333B908B9002008BDFFF79FFB00208E
:10387000FAE76FF00500F7E7034B0360034B0B60BB
:1038800080231360704700BF1C0A00201C08002022
:10389000034B0360034B0B604FF48073136070475E
:1038A0007C0E00207C0A0020124A12F0070F1ED066
:1038B000D11D21F00701C1F5705313440A460E488B
:1038C0000260002141601344083B23F007030B48CA
:1038D000036059601960991A51601360084B1960B0
:1038E000084B1960084B4FF000421A6070474FF4C4
:1038F0007053E4E7DC0E0020F04A0020D80E0020D0
:10390000E44A0020E04A0020DC4A0020164B1A4618
:103910001B688342FBD3516802EB010C844509D03C
:10392000416800EB010C634509D00360904219D057
:10393000106070474068014451601046F0E710B4D1
:103940000A4C2468A3420BD05B6819444160136899
:103950001B680360904200D010605DF8044B704714
:103960000460F7E7704700BFF04A0020D80E00203F
:1039700070B50546FFF704FA364B1B68A3B1364B0A
:103980001B681D424ED135B1083515F0070F02D026
:1039900025F007050835002D46D0304B1B68AB429B
:1039A00051D32F4A146804E0FFF77EFFE7E7224671
:1039B0001C466368AB4202D22368002BF7D1254B2B
:1039C0001B68A34241D016680836236813606368F9
:1039D0005B1B102B10D9601910F0070F08D04FF0A7
:1039E000500383F31188BFF36F8FBFF34F8FFEE750
:1039F00043606560FFF78AFF626818490B689B1A8D
:103A00000B60184909688B4201D216490B60124BB2
:103A10001B681343636000232360134A1368013358
:103A2000136002E0002600E00026FFF743FA16F0DC
:103A3000070F0CD04FF0500383F31188BFF36F8F43
:103A4000BFF34F8FFEE70026EFE70026EDE7304695
:103A500070BD00BFD80E0020DC4A0020E04A0020E4
:103A6000F04A0020E44A0020E84A0020002834D030
:103A700038B50446A0F1080550F8043C174A12680E
:103A8000134208D14FF0500383F31188BFF36F8FB7
:103A9000BFF34F8FFEE750F8081C41B14FF05003C1
:103AA00083F31188BFF36F8FBFF34F8FFEE723EAD5
:103AB000020340F8043CFFF763F954F8041C084A79
:103AC00013680B4413602846FFF720FF054A13686C
:103AD00001331360FFF7EEF938BD7047DC4A002070
:103AE000E04A0020EC4A002082B0002301930D4BF5
:103AF0001B68B3F1FF3F08D04FF0500383F31188E8
:103B0000BFF36F8FBFF34F8FFEE74FF0500383F388
:103B10001188BFF36F8FBFF34F8F019B002BFCD039
:103B200002B070470C00002008480068006880F36D
:103B300008884FF0000080F3148862B661B6BFF3C6
:103B40004F8FBFF36F8F00DF00BF000008ED00E074
:103B5000DFF80C00016841F470010160704700005B
:103B600088ED00E04FF0807340F8043C21F0010143
:103B700040F8081C054B40F80C3C40F8202C6FF036
:103B8000020340F8243C4438704700BFE93A00087B
:103B9000074B19680868B0E8F04F80F30988BFF355
:103BA0006F8F4FF0000080F311887047AFF30080F3
:103BB000F00100204FF0500383F31188BFF36F8FA3
:103BC000BFF34F8F0B4A136801331360012B00D0F2
:103BD00070474FF0E023D3F8043D13F0FF0FF7D008
:103BE0004FF0500383F31188BFF36F8FBFF34F8FF4
:103BF000FEE700BF0C000020094B1B6843B94FF0E3
:103C0000500383F31188BFF36F8FBFF34F8FFEE72D
:103C1000013B034A13600BB983F31188704700BF5F
:103C20000C00002000000000000000000000000068
:103C3000EFF30980BFF36F8F154B1A681EF0100F5A
:103C400008BF20ED108A20E9F04F10602DE909002F
:103C50004FF0500080F31188BFF34F8FBFF36F8F89
:103C6000FFF7CAF94FF0000080F3118809BC19680A
:103C70000868B0E8F04F1EF0100F08BFB0EC108AD3
:103C800080F30988BFF36F8F704700BFAFF30080E8
:103C9000F001002008B54FF0500383F31188BFF303
:103CA0006F8FBFF34F8FFFF779F828B14FF0E02304
:103CB0004FF08052C3F8042D002383F3118808BD10
:103CC0004FF0E022002313619361054B1B68054907
:103CD000A1FB03139B09013B536107231361704749
:103CE00008000020D34D62104FF0E023D3F8002DE0
:103CF0003D4B9A421CD04FF0E023D3F8002D3B4BB4
:103D00009A421ED030B583B0394B1A78D2B20192A4
:103D1000FF221A701B78DBB28DF803309DF8033058
:103D200003F05003334A1370334B07221A601BE031
:103D30004FF0500383F31188BFF36F8FBFF34F8FA2
:103D4000FEE74FF0500383F31188BFF36F8FBFF38B
:103D50004F8FFEE7284A1368013B13609DF803303C
:103D60005B00DBB28DF803309DF8033013F0800F59
:103D7000F0D1214B1B68032B08D04FF0500383F385
:103D80001188BFF36F8FBFF34F8FFEE71B021A4AF4
:103D9000136003F4E0631360019BDBB2144A1370F9
:103DA0004FF0E024D4F8203D43F47003C4F8203DE4
:103DB000D4F8203D43F07043C4F8203DFFF780FF66
:103DC00000250E4B1D60FFF7C3FED4F8343F43F0CF
:103DD0004043C4F8343FFFF7A7FEFFF70DF9FFF7A4
:103DE00083FE284603B030BD71C20F4170C20F413F
:103DF00000E400E0F84A0020FC4A00200C0000200B
:103E0000EFF305830F2B0FD9114A9B5CDBB2114AEC
:103E100012789A4208D94FF0500383F31188BFF308
:103E20006F8FBFF34F8FFEE74FF0E023D3F80C3DC9
:103E300003F4E063084A1268934208D94FF0500334
:103E400083F31188BFF36F8FBFF34F8FFEE7704787
:103E5000F0E300E0F84A0020FC4A00204A4B5A6890
:103E600022F440325A605A6841680A435A60026834
:103E7000536823F48073536002685368016943EA0E
:103E8000012353600268536823F040735360026853
:103E9000536881680B4353600268936823F400639E
:103EA000936002689368C1680B439360826A374BE2
:103EB0009A4257D00268936823F070639360026857
:103EC0009368816A0B4393600268936823F04053C0
:103ED000936002689368C16A0B43936002689368B9
:103EE00023F00203936002689368017E43EA410372
:103EF000936090F82030002B3FD00268536843F461
:103F0000006353600268536823F4604353600168A0
:103F10004B68426A013A43EA42334B600268D36A13
:103F200023F47003D3620168CB6AC269013A43EAA1
:103F30000253CB620268936823F4007393600268B3
:103F4000936890F8301043EA4123936002689368C5
:103F500023F48063936002689368416943EA812394
:103F6000936070470268936823F0706393600268FF
:103F7000936823F040539360B0E70268536823F4DA
:103F800000635360CAE700BF002301400100000F37
:103F900038B310B50446036C43B1236C13F0100F13
:103FA0000BD00120002384F83C3010BDFCF7E4FC6A
:103FB0000023636484F83C30EFE7236C23F48853D8
:103FC00023F0020343F0020323642046FFF746FF79
:103FD00000206064236C23F0030343F00103236497
:103FE000E0E70120704770477047704770B504469E
:103FF00003681E685D6816F0020F2FD005F02002DE
:1040000062B3026C12F0100F03D1026C42F4007222
:1040100002649A6812F0405F19D1227EBAB9DA6A56
:1040200012F4700F03D09A6812F4806F0FD15A689F
:1040300022F020025A60236C23F480732364236CE3
:1040400013F4805F03D1236C43F001032364204603
:10405000FFF7C9FF23686FF012021A6005F08003B2
:1040600016F0040F37D0002B35D0236C13F0100F4F
:1040700003D1236C43F40053236423689A6812F439
:10408000401F21D19A6B12F4401F03D09A6812F49A
:10409000806F19D15A6812F4806F15D19A6812F0A6
:1040A000405F11D1227E7AB95A6822F080025A60AC
:1040B000236C23F480532364236C13F4807F03D197
:1040C000236C43F001032364204600F007F92368C2
:1040D0006FF00C021A6005F0400316F0010F05D0D6
:1040E00023B123681B6813F0010F06D105F080652A
:1040F00016F0200F00D065B970BD236C43F48033F7
:1041000023642046FFF770FF23686FF001021A60F6
:10411000ECE7636C43F00203636423686FF02005EF
:104120001D602046FFF761FF23681D60E4E7000083
:1041300030B482B00023019390F83C30012B00F0A2
:10414000C080012380F83C300B68092B41D90468FA
:10415000E2689BB203EB43031E3B4FF0070C0CFAE3
:1041600003F322EA0303E3600468E2680B8803EBCD
:1041700043031E3B8D6805FA03F31343E3604B686A
:10418000062B3DD80468626B03EB8303053B4FF0BD
:104190001F0C0CFA03F322EA030363630468626BE7
:1041A0004B6803EB8303053BB1F800C00CFA03F343
:1041B000134363630268444B9A4251D00268424BF6
:1041C0009A425AD0002380F83C30184602B030BCE6
:1041D0007047046822699BB203EB43034FF0070C5E
:1041E0000CFA03F322EA03032361046822690B88B3
:1041F00003EB43038D6805FA03F313432361BEE722
:104200000C2B16D805682A6B03EB8303233B1F2472
:1042100004FA03F322EA03032B6305682A6B4B6855
:1042200003EB8303233B0C8804FA03F313432B6350
:10423000C0E70568EA6A03EB8303413B1F2404FAE5
:1042400003F322EA0303EB620568EA6A4B6803EBB7
:104250008303413B0C8804FA03F31343EB62A9E7A1
:104260000B68122BAAD1194B5A6822F400025A602B
:104270005A6842F480025A60A0E70B68144A9342DD
:1042800001D0112B9ED1114B5A6822F480025A6042
:104290005A6842F400025A600A680D4B9A4291D162
:1042A0000C4B1B680C4AA2FB03239B0C03EB830300
:1042B0005B000193019B002B84D0019B013B019388
:1042C000F8E7022082E700BF002001400023014000
:1042D000120000100800002083DE1B43704798B1D5
:1042E00010B5044643795BB10223637122681368F9
:1042F00043F004031360012363710020A06010BD2C
:104300000371FCF725FCEFE7012070477047704709
:1043100010B5044603685A6812F0200F19D15A6884
:1043200012F0400F21D15A6812F0010F1CD01A6808
:1043300022F008021A6003689968C1604379DBB211
:10434000042B11D00123437100230371FFF7DEFF1B
:104350000AE010238360042363712046FFF7D7FF30
:1043600023686FF060025A6010BD08238360F2E793
:10437000DFF834D00D480E490E4A002302E0D4582D
:10438000C4500433C4188C42F9D30B4A0B4C00239D
:1043900001E013600432A242FBD3FDF707FF00F0F7
:1043A00011F8FCF785FA7047000003200000002098
:1043B00010000020C044000810000020004B002026
:1043C000FEE7000070B50D4D0D4C641BA4100026D7
:1043D000A64209D10B4D0C4C00F02EF8641BA41022
:1043E0000026A64205D170BD55F8043B984701361A
:1043F000EEE755F8043B98470136F2E7B844000869
:10440000B8440008B8440008BC4400080A4491427B
:1044100000F1FF3300D1704710B511F8014B03F8DC
:10442000014F9142F9D110BD02440346934200D19D
:10443000704703F8011BF9E7F8B500BFF8BC08BCEA
:104440009E467047F8B500BFF8BC08BC9E46704752
:1044500064656661756C745461736B005044000848
:10446000000000000000000000000000000000004C
:104470000002000018000000000000000000000022
:104480000000000000000000010203040607080904
:10449000000000000102030449444C4500000000F4
:1044A000546D725100000000546D72205376630009
:0844B00070BDFF7F0100000058
:0444B800D501000822
:0444BC00B101000842
:1044C00001000000100000000024F400AAAAAAAA1B
:04000005080043713B
:00000001FF
